:020000040000FA
:39000000FFFF62FF3600FFFFFFFFFFFFFFFFFFFFFFFFFFFFFFFFFFFFFFFFFFFFFFFFFFFFFFFFFFFFFFFFFFFFFFFFFFFFFFFFFFFFFFFFFFFFFFFFFFFFFF65
:39003900804C3489264126C00499201364824C900932412600000000000000000000000000000000304126C80499200364824C8009924526C00499808947
:39007200003FA007F4801FA0037EC00FF8013FE007FC801F00000000000000000000000000000000E8801FF0037EC005F8013F4007BC801FA0037E00B0CA
:3900AB000000000000000000000000000000000000000000000000000000000000000000000000000000000000000000000000000000000000000080F9A3
:3900E4000000000000000000000000000000000000000000000000000000000000000000000000000000000000000000000000000000000000000080F96A
:39011D0020A1002480801000924242080C81212004858010000000000000000000000000000000008080101202C25000080161040404801008024200EB3C
:39015600000800812000948000080017C0002C900220410A000000000000000000000100000000000061020001400000610424000004002A00800082BE8F
:39018F000000000000000000006008000D000000800000000000000000000000000000000000000000000000402000004100000402000000020000008118
:3901C8000000000000000000000000000000000000000000000000000000000000000000000000000000000000810000000400000800000000000080B43D
:390201000000000000000000C00300200300000000060000000000000000000000000000000000000000000000000100070000000000000000000000814F
:39023A000000000000000000400360040108000000800000000000000000000000000000000000000000000000200000010100802000000000000000C3D6
:390273000000000000000000000360048000000000460100000000000000000000000000000000000000000000200000040000804000000000040000DB61
:3902AC000000000000000000C08318100F020000800700000000000000000000000000000000000000000000C00002000B02000C0000000006000000F045
:3902E5000000000000000000000060100C00000000060000000000000000000000000000000000000000000000000100040000001000000018000080C0F1
:39031E000000000000000000008860012C100000000001000000000000000000000000000000000000000000000A0000000400A00000000018110080BE6B
:3903570010000000000000000060000C81010000802002000000000000000000000000000000000000D0180040200100010800040100000002000000F57F
:390390000000000000000000000360000800000000020000000000000000000000000000000000000000000000020000000000001000000000000000AD08
:3903C9000000000000000000C083782004000000000000000000000000000000000000000000000000C02000000001000002001C0000000018000080C3C2
:390402000C00000000000000400808048002000000100200000000000000000000000000000000000000080000230000400000040400000000020020E058
:39043B000400000000000000002000110800000000100000000000000000000000000000000000000000200000930000200200100200000018040000A890
:390474000000000000000000C08378000F020000800101000000000000000000000000000000000000F00000C00000000300002C080000001E000080D7A5
:3904AD000C00000000000000000361000C0400000000010000000000000000000000000000000000004000000083000000020010080000001800001098F8
:3904E60000000000000000000020001084000000004400000000000000000000000000000000000000402200000A00008800000001000000001100008F50
:39051F0010000000000000004090080C8101000080060000000000000000000000000000000000000050000040000000010000008020000082000040E4D0
:390558000000000000000000000140000800000000000000000000000000000000000000000000000000400000030000000000000000020000080000E5EF
:390591000000000000000000000021100C0400008001040000000000000000000000000000000000003000000000000000080000800300000E000080F929
:3905CA000C000000000000000020000084000000804000000000000000000000000000000000000000104800008000004000000080800000020200B0BB01
:390603000400000000000000001040122000000000000100000000000000000000000000000000000000040000200000200200000012000048000010B3D4
:39063C000000000000000000C08078000B080000800700000000000000000000000000000000000000B02000C0000200030000008005010016040000A05E
:390675000C00000000000000000060200C0000000006000000000000000000000000000000000000000000000000010000020000000201000800003090E0
:3906AE0000000000000000000002240484040000001608000000000000000000000000000000000000C00201002300008C000000004000008002008091FE
:3906E70000000000000000000060000C0100000080C00000000000000000000000000000000000000010000040000000010000008020000082000000F4C6
:390720000000000000000000000360000000000000040000000000000000000000000000000000000000000000030000000000000000020000080080A10B
:390759000000000000000000C083780000040000000202000000000000000000000000000000000000C000000000010000000000800300000E0000809042
:390792000800000000000000402008128C000000004000000000000000000000000000000000000000C0100000000000000000008080000002020020F1FB
:3907CB000000000000000000001000028C0200000024010000000000000000000000000000000000000020000090000020020000002200008800008093A1
:390804000000000000000000C083781003000000800700000000000000000000000000000000000000F00000C00000000300000080010100160400008D8A
:39083D000400000000000000000361200C020000000601000000000000000000000000000000000000C00000000001000C0800000002010008080090C2AB
:390876000000000000000000002000044C000000001200000000000000000000000000000000000000002200002300004C0000000014000080000080B171
:3908AF0010000000005088004020690049040000800600000000000000000000000000000000000000508000401000004100000080000000820000C0EB7E
:3908E8000000000000000000000200000000000000000000000000000000000000000000000000000000000000000100000400000006000000100080FE3C
:3909210000000000003000000000194008020000800100000000000000000000000000000000000000300000C0010000070000000000020000080080DA2D
:39095A000C00000000104800002308024400000080000800000000000000000000000000000000000010480040400000010100000040000040000030ACD1
:390993000400000000002000008300018802000000200000000000000000000000000000000000000000080000910000440200000020000000040090CD79
:3909CC000000000000B00000C000781007000000800701000000000000000000000000000000000000B02000C00200000B0000008001010006000080A026
:390A05000C00000000008000000360000800000000060000000000000000000000000000000000000000000000810000040000000000010000000030D92C
:390A3E000000000000C00800008260814C020000001608000000000000000000000000000000000000C00201000000008002000000260000102000008CC1
:390A770010000000000000004003600C8101000080000000000000000000000000000000000000000010000040100000410000008000000002030040839C
:390AB0000000000000000000000060000800000000000000000000000000000000000000000000000000000000000100000400000006000000000000AAF0
:390AE90000000000000000000000790004040000000002000000000000000000000000000000000000C00000C0010000070000000006020018000080CD5C
:390B22000C000000000000000000680080000000004600000000000000000000000000000000000000C00000404000000101000000400000181100B0B253
:390B5B0004000000000000000083001188020000001600000000000000000000000000000000000000C0200000890000240200000020000000040010FD69
:390B94000000000000000000C00318000F000000800101000000000000000000000000000000000000F00000C00200000B0000008007010016000080CE13
:390BCD000C00000000000000000001000C020000000600000000000000000000000000000000000000000000000100000408000000060100180000B08171
:390C06000000000000000000002300004400000000160200000000000000000000000000000000000000100000A00000400000000020000008200080CEB0
:390C3F000000000000108800400308000D000000800600000000000000000000000000000000000000100000400300004100000080240200020300C0D136
:390C78000000000000800000000000000000000000000000000000000000000000000000000000000000000000030000000400000000000000000000B606
:390CB1000000000000F08000008000200300000080010400000000000000000000000000000000000000200000000000070000000004010018000000A886
:390CEA0008000000009008000020600421040000800000000000000000000000000000000000000000000800000000000101000000220000980400B0E6AA
:390D23000000000000402800001360022002000000000000000000000000000000000000000000000000020000100100840200000024000000210090B07A
:390D5C000000000000F00000C08318200F000000800701000000000000000000000000000000000000302000C00000000B0000008003010016000080BE69
:390D95000400000000400000000061000C000000000600000000000000000000000000000000000000002000000301000400000000040000180800B09DD5
:390DCE000000000000008400002360412C100000001608000000000000000000000000000000000000C0040000030000000200000016010048000080BFE3
:390E0700100000000010180A016048224904000080C0000000000000000000000000000000000000005002004003000041000004800000008A080080C8E4
:390E40000000000000000000100300000000000000040000000000000000000000000000000000000000400000030000000400000000000000000080D9C2
:390E79000000000000C08006C00341000800000000020200000000000000000000000000000000000030000000000000070000008007000006000000FA2C
:390EB2000C00000000C0020249002014441000000040000000000000000000000000000000000000001048000000000001010080A0400200020900209FA0
:390EEB000400000000008040108040112800000000140000000000000000000000000000000000000000220000100100040200801000010000010080A6FC
:390F24000000000000B00016C003380007080000800701000000000000000000000000000000000000B00000C00000000B00000C8007000016040000E430
:390F5D000C00000000C020000003410008000000000600000000000000000000000000000000000000000000000300000400000000000000000000108086
:390F96000000000000400858202060108C040000001202000000000000000000000000000000000000C0020100830000200200B0408000005820008093CB
:390FCF0010000000000000000000000000000000000000000000000000000000000000000000000000000000000000000000000000000000000000C0BC5D
:391008002000048000100002400008000120000480001000000000000000000000000000000000800010000240000800012000048000100002400080F9B2
:391041000000000000000000000000000000000000000000000000000000000000000000000000000000000000000000000000000000000000000080F9FD
:39107A002C000480001000024000080001200004800010000000000000000000000000000000008000100002400008000120000480001000024000308EEF
:3910B3000400000000000000000000000000000000000000000000000000000000000000000000000000000000000000000000000000000000000090ACC4
:3910EC002000048000000000000000000020000400001000000000000000000000000000000000800000000200000800002000000000100000400080E891
:391125000C000000008000100002400008000000000400000000000000000000000000000000000000800000000200000800002000040000100000B08EAB
:39115E002000048000100002400008000120000480001000000000000000000000000000000000800010000240000800012000048000100002400080F95B
:391197000000000000000000000000000000000000000000000000000000000000000000000000000000000000010000200000000000000000000080D8A6
:3911D0000000000000000000000000000000000000800000000000000000000000000000000000000000000000000000000000000000000000000000F175
:391209000000000000000000000000000000000000000000000000000000000000000000000000000000000000000000000000000000000000000080F933
:391242001000000000000200000000000000000000100000000000000000000000000000000000000000000000000000000000000000000000000080CA07
:39127B000800000000000000000000000000000000000000000000000000000000000000000000000000000000000100000000000000000004000000A885
:3912B4000000000000000000000000000000000000000000000000000000000000000000000000000000000000000000000000000000000000000080F988
:3912ED000000000000000000000000100000000000000000000000000000000000000000000000000000000000000000000000000000000000000080E94F
:391326000000000000000000020000000000000000000000000000000000000000000000000000000000000804000000000040000000000000000100EE51
:39135F000000000000000000105020200000000000000000000000000000000000000000000000000080020210000000400100010000000000400100DEC0
:39139800000020000200003005002043000000000000008800000000000000000000000000000000000000C00000000000005800000101880000688AC086
:3913D1000000000004000000040020000000000000000000000000000000000000000000000000000000000000000000000040000000040000000080DF18
:39140A000A00200000000008000000000000000000000000000000000000000000000000000000000000000000000000000000000000000000008028D1FE
:391443000000000000000000000000000000000000000000000000000000000000000000000000000000000000000000100000000000000000000080E9F7
:39147C000000000000000000000000000000000000000000000000000000000000000000000000000000000000000000000000000000000000000080F9BE
:3914B5000000000000000000000000000000000000000000000000000000000000000000000000000000000000000000000000000000000000000080F985
:3914EE000000000000000000000000000000000000000000000000000000000000000000000000000000010000000000000000000000000000000080F84C
:391527000000000000000000000000000000000000000000000000000000000000000000000000000000000000000000000000000000000008000000F192
:391560000000000000000000000000000000000000000000000000000000000000000000000000000000000000000000000000000000000000000080F9D9
:3915990000000000008000100000000000000000000000000000000000000000000000000000000000800000000200000800002000040000100000809BB0
:3915D2000000000000000000000120000400000000020000000000000000000000000000000000000080000000010000000000000002000000000000AD89
:39160B0002000000001000006000088001100000800008000000000000000000000000000000000000100001400000000100000480000000022000A0C0BB
:391644000000000000001000000000000800000000000000000000000000000000000000000000000000000000000000000000000000000008000080F0DD
:39167D001600000000000000000020000000000000000000000000000000000000000000000000000000000000000010000000000000000000000080ADC1
:3916B60000000100000000000001000004020000000000000000000000000000000000000000000002000000040200000000000100020000000480E0A6DE
:3916EF000000010000410008400A1000010800000000000000000000000000000000000000000080000014005000002004000001800000000814000281ED
:391728009000000420000078008A40A1380000000080208900000000000000000000000000000000102000B0050000A60200200084000000040010E0CE9D
:391761004000000000000008004000000000000000000000000000000000000000000000000000000000000004000000000000000000000000000000B112
:39179A0000000004000000108000400004000000000002000000000000000000000000000000000000000008000000000000800020000000000000008410
:3917D3000000000000000200000000000008000000000000000000000000000000000000000000000000000000000000000000000000000000000000D300
:39180C000000000000000000000000100002000000000000000000000000000000000000000000000000000080000000000000000000000002000000E926
:391845000000000000000000080000000004000000000000000000000000000000000000000000000000000000000000000000000000000000000080B12D
:39187E000000000000000000000000000000000000000000000000000000000000000000000000000000000000000000000000000000000000000080F9B8
:3918B7000000000000000000000040000800000000000000000000000000000000000000000000000000000000000000000000000000000000000000BDF3
:3918F0000000000000000000800000000000000000040000000000000000000000000000000000000000000000000000000000000000000000100000E546
:391929000000000000000000020000000000000000000000000000000000000000000000000000000000000000000000000000100000000000040080EF00
:391962000000000000000000000000000000000000000000000000000000000000000000000000000000000000000000000000000000000000000080F9D3
:39199B000000000000000000000000000000000000000000000000000000000000000000000000000000000000000000000000000000000000000008F11A
:3919D4000000000000000000000000000000000000000400000000000000000000000000000000000000000000000000000000000000000000000080BD99
:391A0D000000000000001000000000010000000000000000000000000000000000000000000000000000020000000000000000004000000000000080FFCE
:391A46000000000000004000000002000000000000000000000000000000000000000000000000000000000000000000000000000800000000000000DD40
:391A7F00200005060050840040110A010000003480000200000000000000000000000000000000000000000248000000000000000000000000000000F6DD
:391AB80000010000000000000000402000000030000400000000000000000000000000000000000000000010000000000000000000000000000000808B45
:391AF100E001300000300000C00078000000000080070000000000000000000000000000000000000000001E00030000000000000000000000000080B368
:391B2A002005B20800104800402049810000000080140800000000000000000000000000000000000000005220A30000000000000000000000000080A848
:391B63008000800800002200000020000000000000020000000000000000000000000000000000000000000800900000000000000000000000000080E104
:391B9C00E0412C0000B00000C0027A100000000C90070100000000000000000000000000000000000000001EC4030000000000000000000000000000B18D
:391BD5008040300800000000000020000000003008020000000000000000000000000000000000000000000804030000000000000000000000000000ED89
:391C0E000000100000C00201000B04080000003000100200000000000000000000000000000000000000000000000200000000000000000000000080FBF4
:391C470020103500000000004003000000000034000000000000000000000000000000000000000000000002400000000000000000000000000000C0C9BD
:391C80000001000000000000000000000000000000000000000000000000000000000000000000000000001800000000000000000000000000000000E82A
:391CB900E0010C1000000000C00000000000003C00000000000000000000000000000000000000000000000004030000000000000000000000000080A6CC
:391CF200280506020000000040500000000000B410000000000000000000000000000000000000000000004000030000000000000000000000000030A01D
:391D2B008004000800000000008800000000000002000000000000000000000000000000000000000000008004930000000000000000000000000010DB67
:391D6400E0413C0000000000C00300000000003C080000000000000000000000000000000000000000000006C00300000000000000000000000000808A0F
:391D9D0084003000000000000003000000000000000000000000000000000000000000000000000000000000080000000000000000000000000000308D91
:391DD6000040B04000000000000B04000000008040000000000000000000000000000000000000000000001801A000000000000000000000000000808715
:391E0F00B001040000D004000000680000000004A0100000000000000000000000000000000000000000000242000000000000000000000000000040E091
:391E48000000000000008000000000000000002000000200000000000000000000000000000000000000001000000000000000000000000000000080D05F
:391E8100E001000000C02000000018400000003C00000100000000000000000000000000000000000000001E00030000000000000000000000000080C66B
:391EBA00AC8500000000040000000800000000A440200000000000000000000000000000000000000000005220030000000000000000000000000030B455
:391EF3000404000200000000000000110000009000000000000000000000000000000000000000000000004800A30000000000000000000000000090F997
:391F2C00E0410C0800F02000000078000000003C88010100000000000000000000000000000000000000001EC403000000000000000000000000008095FF
:391F65000C00300000402000000060000000001008000100000000000000000000000000000000000000000800000200000000000000000000000030A054
:391F9E000004321000400000000060810000008000040000000000000000000000000000000000000000000004200000000000000000000000000000C932
:391FD7002040040600100000000008000000000491000000000000000000000000000000000000000000001A40000000000000000000000000000040A37D
:392010000000000000000000000000000000002000000000000000000000000000000000000000000000001800000000000000000000000000000000FA65
:392049000000300000C00000000000100000003C00000000000000000000000000000000000000000000000000000000000000000000000000000080D6CC
:392082000848301000C0880000000000000000A4401002000000000000000000000000000000000000000000004000000000000000000000000000B08FD8
:3920BB000004000200000000000000010000001001000000000000000000000000000000000000000000008008A00000000000000000000000000090B26A
:3920F40060402C0800F02000000018100000003C880101000000000000000000000000000000000000000006C00000000000000000000000000000009982
:39212D000400300800C020000000000000000010000001000000000000000000000000000000000000000018040002000000000000000000000000308777
:392166000041900000000000000060120000000009060000000000000000000000000000000000000000005800230000000000000000000000000000F97A
:39219F00B0010402005040000000680C00000034A2000000000000000000000000000000000000000000008250110100000000000000000000000080C84A
:3921D8000000001000000000000000000000002000000000000000000000000000000000000000000000001000000000000000000000000000000080FB13
:392211006000010800300000000060100000000C00000000000000000000000000000000000000000000001EC0000000000000000000000000000080DF42
:39224A002C0000000010480000000000000000A4400000000000000000000000000000000000000000000052602001000000000000000000000000A0F38D
:392283000400000200000200000000000000001000000000000000000000000000000000000000000000008804200000000000000000000000000000D48A
:3922BC00E0810C0800B04000000078100000000C90010100000000000000000000000000000000000000001EC0820000000000000000000000000000D42A
:3922F5008C0100080000000000002000000000100806000000000000000000000000000000000000000000080000000000000000000000000000009099AC
:39232E008005A20000C002010000201100000030011602000000000000000000000000000000000000000000050B0400000000000000000000000080FA84
:392367002000340000100000400008000000000480400400000000000000000000000000000000000000000249000000000000000000000000000040ED51
:3923A0000000000000000000000000000000003000040000000000000000000000000000000000000000001000000000000000000000000000000080FF41
:3923D90000000C1000C00000000360000000000080070000000000000000000000000000000000000000000008000000000000000000000000000000E617
:392412000848040100C00000004060080000000091140800000000000000000000000000000000000000001801A000000000000000000000000000309DA1
:39244B000004000100C00000002300000000000009120100000000000000000000000000000000000000001803900000000000000000000000000090F227
:3924840060403C0800F02000C08378100000000C800700000000000000000000000000000000000000000006C00000000000000000000000000000008087
:3924BD000400300000000000000360000000000000020000000000000000000000000000000000000000001800000000000000000000000000000030E81D
:3924F6008041B04000008800000802110000003008100100000000000000000000000000000000000000009004030200000000000000000000000080C235
:39252F0030003480065010004000680000000024802004000000000000000000000000000000000000000002400928440000000000000000000000009270
:392568000000000000000000000000000000000010040000000000000000000000000000000000000000001800000100000000000000000000000000FC11
:3925A10000000CA0013400000003184000000020800700000000000000000000000000000000000000000000C8031800000000000000000000000000FA41
:3925DA000C00048200104800004008020000001088140800000000000000000000000000000000000000000040200924000000000000000000000020A192
:392613000404000000010400008300120000002009420100000000000000000000000000000000000000000003A00001000000000000000000000080D08C
:39264C0060403C8807B02000C00378000000001C800700000000000000000000000000000000000000000006C0025840000000000000000000000080E27A
:392685008C01300006000000000360000000002000020100000000000000000000000000000000000000000008000000000000000000000000000090A893
:3926BE008041B04016C8020100106181000000B008400000000000000000000000000000000000000000001801086481000000000000000000000080ECF5
:3926F70030880480C05088004041080100000004808000000000000000000000000000000000000000000042440328400000000000000000000000C0D1C6
:392730000001000000000000000040200000000000040000000000000000000000000000000000000000000800000000000000000000000000000000897A
:39276900E001300006300000C00078000000003080070000000000000000000000000000000000000000000008031800000000000000000000000000BE20
:3927A2002C05020416144800402049810000003080140800000000000000000000000000000000000000000001400824000000000000000000000030C9F9
:3927DB00844030024002020000A020100000003009020100000000000000000000000000000000000000008004A00008000000000000000000000010CE75
:39281400E0013C8805B02000C00278000000003C800700000000000000000000000000000000000000000006C0035800000000000000000000000080C8AB
:39284D008C403000060100000000200000000000000200000000000000000000000000000000000000000000000302000000000000000000000000309266
:392886000004001002C00201000B04080000000008400100000000000000000000000000000000000000005004206081000000000000000000000080B358
:3928BF0010000000000000000000000000000000000000000000000000000000000000000000000000000000000000000000000000000000000000C0BC54
:3928F8002000048000100002400008000120000480001000000000000000000000000000000000800010000240000800012000048000100002400080F9AA
:392931000000000000000000000000000000000000000000000000000000000000000000000000000000000000000000000000000000000000000080F9F4
:39296A002C000480001000024000080001200004800010000000000000000000000000000000008000100002400008000120000480001000024000308EE6
:3929A3000400000000000000000000000000000000000000000000000000000000000000000000000000000000000000000000000000000000000090ACBB
:3929DC0000000000000000020000000001200000000010000000000000000000000000000000008000100000000000000120000480001000024000008D7B
:392A15000C012000048000000002400000000020000400000000000000000000000000000000000000000010000240000000000000000000000000B091DE
:392A4E002000048000100002400008000120000480001000000000000000000000000000000000800010000240000800012000048000100002400080F952
:392A87000000000000000000000000000000000000000000000000000000000000000000000000000000000000000000000000000000000000000080F99D
:392AC0000002000400801000004000000000000000800000000000000000000000000000000000000000000002000000000000000000000000000080B84D
:392AF9000000000000000000000000000000000000000000000000000000000000000000000000000000000000000000000000000000000000000080F92B
:392B32000000000010000200000000000000000000100000000000000000000000000000000000000000000000000000000000000000000000000080DAEE
:392B6B000800400000000000000000000000000000000000000000000000000000000000000000000000000000000000000000000000000000000000B930
:392BA4000004000000000000000000010000008000000000000000000000000000000000000000000000000000000001000000000000000000000080A052
:392BDD0002000000000000000000000000000000000000000000000000000000000000000000000000000008040000000000000000000000000000009B16
:392C16000000000000000000000040000000000000000000000000000000000000000000000000000000000000810000000000000000000000000000B410
:392C4F0000450005000020800200080000000010000000000000000000000000000000000000000000000004480002000000000000000000000000009B5F
:392C880000312001020000800500400092541301000040010000000000000000000000000000000000000000000000000000000000800000000000F0D57A
:392CC1000000000004000000040000000000000000004000000000000000000000000000000000000000000000000000000000000000000000000080B959
:392CFA0088402000000000000000200000800000000000000000000000000000000000000000000000000000000000000000000000000400000000A091E4
:392D33000000000000000000000000000000000000000000000000000000000000000000000000000000000000000000000000000000000000000080F9EE
:392D6C000000000000000000000000000000000000040000000000000000000000000000000000000000000000000000000000000000000000000080FDAD
:392DA5000000000000000000000000000000000000000000000000000000000000000000000000000000000000000000000000000000000000000080F97C
:392DDE000000000001000000000000000000000000000000000000000000000000000000000000000000000000000000000000000000000000000080E952
:392E17000000000000000000000000000000000000000000000000000000000000000000000000000000000200000000000000000000000000000080DB25
:392E50000000000000000000000000000000000000000000000000000000000000000000000000000000000000000000000000000000000000000080F9D0
:392E89000000000000800000000200000000000000000000000000000000000000000000000000000000000000024000000000000000000000000000D577
:392EC2000001000000000000000040000000006000000000000000000000000000000000000000000000000800020010000000000000000000000000B864
:392EFB00000006C00008000140000C800000000040000800000000000000000000000000000000000000000020000480000000000000000000000080C9CE
:392F34008000100000000000000000000000001000000000000000000000000000000000000000000000000000010000000000000000000000000080E162
:392F6D008C000000000000000000000000000000000000000000000000000000000000000000000000000008040000000000000000000000000000C0B122
:392FA6000000000800002000000000000080000000000000000000000000000000000000000000000000000000002000000000000000000010020090FB8D
:392FDF0040401020140094000000400100204000000200000000000000000000000000000000000000000004080A2800000000000000000002100080E608
:3930180002558084180048250042500000000C000001040000000000000000000000000000000000000000F0430C4800000000000000000010000018B499
:393051000040000000000000000000000000000000000000000000000000000000000000000000000000000000000000000000000000000000000080BDC9
:39308A004000000400000000804020000000000000000000000000000000000000000000000000000000000804002000000000000000000010000080C469
:3930C3000000080000200000000000000000000000010000000000000000000000000000000000000000000440000000000000000000000000000080D017
:3930FC000000000000000000000000000000000000000000000000000000000000000000000000000000000400000800000000000000000000000000BDD2
:393135000000000000000000000000000000000000000000000000000000000000000000000000000000000000000000000000000000000000000080F9E8
:39316E000000000000000000000000000000000000000000000000000000000000000000000000000000000000000000000000000000000000000080F9AF
:3931A7000000000000002000000000000000000000000000000000000000000000000000000000000000000000000100000000000000000000000080EA64
:3931E0000200000000010000008001000000000000000000000000000000000000000000000000000000000000000000000000000000000000000080C2F0
:393219000000000000000000000000000000000000000000000000000000000000000000000000000000000000000000000000000000000000000008F183
:3932520000000000001000004000000000000000800000000000000000000000000000000000000000000002000000000000000000000000000000008BE6
:39328B000000000000000000000000000000000000000000000000000000000000000000000000000000000000000000000000000000000000000080F991
:3932C4000000000000000000000000000000000000000000000000000000000000000000000000000000000000000000000000000000000000000080F958
:3932FD000004000000000000000000010000008000000000000000000000000000000000000000000000000000000001000000000000000000000080A0F2
:393336000000000000000000000400000000000000000000000000000000000000000000000000000000000000400000000000000000000000000080FD9D
:39336F0000000000000000000000080000200800802202000000000000000000000000000000000000000002400028020020000000000000000000009D28
:3933A8000000000000000000000060000000400000020000000000000000000000000000000000000000000000030020000000000000000000000080FCAB
:3933E1000000000000000000000078000000400080070000000000000000000000000000000000000000001E00803800000000000000000000000000ADF1
:39341A000000000000000000000008420000000080200100000000000000000000000000000000000000001A00100812000000000000000000000080804A
:3934530000000000000000000000000000000400002000000000000000000000000000000000000000000000008800220000500000000000000000008A98
:39348C0000000000000000000000781000604000800701000000000000000000000000000000000000000006C4005800006000000000000000000080C78E
:3934C5000000000000000000000060200000400000020100000000000000000000000000000000000000000004002100008041000000000000000080E3C2
:3934FE0000000000000000000000000400000500004200000000000000000000000000000000000000000040002300110080110000000000000000809530
:393537001000000000000000000008000020000080000000000000000000000000000000000000000000004A44000000000030040100000000406040D42C
:3935700000000000000000000000600000000000000600000000000000000000000000000000000000000000000000000000000010000000000000809894
:3935A9000000000000000000000078000000000000060200000000000000000000000000000000000000000EC003000000E0011C0000000000000000811A
:3935E2000C0000000000000000000814000000000040000000000000000000000000000000000000000000024420010000A00104040000000000883097E9
:39361B000400000000000000000000040000040000100800000000000000000000000000000000000000000000200000008041100200000000009010FBC4
:3936540000000000000000000000781000604000800700000000000000000000000000000000000000000016C483000000E0012C0800000000C00080A537
:39368D000C00000000000000000060200080010000060200000000000000000000000000000000000000000804000000000000101000000000008030B45F
:3936C6000000000000000000000000040080510000200000000000000000000000000000000000000000008000400000000040000100000000000200B320
:3936FF0010000000000000000000000000003000000000000000000000000000000000000000008000000002401008000080310000001084004010C0C45F
:3937380000000000000000000000000000000000000000000000000000000000000000000000000006000000000001000000000000000000000000819E32
:3937710000000000000000000000000000E00100000000000000000000000000000000000000000000000000C001780000E001000000702000C08180E1F2
:3937AA000C000000000000000000000000A0010000000000000000000000000000000000000000004008000040400824002044000000900800400A30BB14
:3937E300040000000000000000000000008005000000000000000000000000000000000000000000200100000409002200004000000000220000A0109E24
:39381C0000000000000000000000000000E04100000000000000000000000000000000000000008001000006C080780000E001000000B00000C00200A61A
:393855000C000000000000000000000000000000000000000000000000000000000000000000000000020018000100000080010000004000000001B0E7BA
:39388E0000000000000000000000000000005000000000000000000000000000000000000000000046000098040A0111000040000000002200008880F455
:3938C7000000000000000000000068000020000080060000000000000000000000000000000000800600004240100000002000000000D000004000C0F1C1
:393900000000000000000000000000000000000000060000000000000000000000000000000000000600000004000100000000000000C00000000000803D
:393939000000000000000000000000100000000080070000000000000000000000000000000000000000001EC401000000E001000000C02000C00300A3B4
:39397200080000000000000000000004000088008006000000000000000000000000000000000000000000424040000000A001000000C004004020B1AE1C
:3939AB000000000000000000000060140000040000200000000000000000000000000000000000002002000001110000000008000000002200001010B419
:3939E40000000000000000000000780000600001800101000000000000000000000000000000008001000016C4820000006040000000F00000C08300D8C7
:393A1D000400000000000000000000200000000100000000000000000000000000000000000000000600000000010000000000000000C0200000003092A2
:393A56000000000000000000000060040080090000000000000000000000000000000000000000004608000805200400000090000000C000000080009D5E
:393A8F0010000000000000000000080000003000800000000000000000000000000000000000008020000002408000000020000000001000004000C0B2F2
:393AC8000000000000000000000040400000000000060000000000000000000000000000000000000002001800020000000000000000000000000000D84B
:393B010000000000000000000000002000E001008007020000000000000000000000000000000080030000180800010000E001000000004000C00380D920
:393B3A000C000000000000000000600400A04900804000000000000000000000000000000000008080000098002300000020900000000002004020B18E2D
:393B730004000000000000000000600000004000002001000000000000000000000000000000000022010018018B0000000048000000002000009010DEA7
:393BAC0000000000000000000000181000E0010080070000000000000000000000000000000000800500001EC400000000E001000000300000C00300FB1A
:393BE5000C00000000000000000060100080410000060000000000000000000000000000000000000200001804030000000000000000002000000030DD16
:393C1E000000000000000000000040010000100000400100000000000000000000000000000000004001009800220200000020000000C000000040808EB0
:393C57000000000000000000000008000000300000C00000000000000000000000000000000000802000001A431000000020080000001000004000009E19
:393C90000000000000000000000020400000000000060000000000000000000000000000000000000002001800000100000080000000000000000080ADCD
:393CC90000000000000000000000782000E00100800704000000000000000000000000000000008003000018C401000000E000000000F08000000000C34B
:393D020008000000000000000000480400A051008040000000000000000000000000000000000080800000184140000000202000000010080000002085ED
:393D3B000000000000000000000000000000040000100100000000000000000000000000000000001201008800890000008044000000002200009080E33D
:393D740000000000000000000000581000E0410080070000000000000000000000000000000000800500001EC4020000006001000000F00000C000808E7E
:393DAD000400000000000000000060100080410000060200000000000000000000000000000000000200001800810000008000000000002000000310ACA6
:393DE6000000000000000000000020010000040000400000000000000000000000000000000000001001009804000000000048000000000800004300BD42
:393E1F0010000000000000000000080000003000802402000000000000000000000000000000008020000082400300000020080000001084004010C0F259
:393E58000000000000000000000060000000000000000000000000000000000000000000000000000002000004030000000080000000000000000001EC5B
:393E910000000000000000000000781000E001000004000000000000000000000000000000000080030000000000000000E000000000704000C00180ED4A
:393ECA000C000000000000000000080400A04100004201000000000000000000000000000000008080000000040000000020200000009002004042308E6D
:393F03000400000000000000000000140000440000240100000000000000000000000000000000004201000000100100008050000000002000009090A8F8
:393F3C0000000000000000000000780000E00100800300000000000000000000000000000000008005000006C4000000006001000000B00000C0020099B5
:393F75000C00000000000000000060200080410000040000000000000000000000000000000000000200000004830000008040000000402000008130F375
:393FAE000000000000000000000000040000000000260100000000000000000000000000000000001002009000130000000010000000000000000080E08A
:393FE7001000000000000000000008020000300080000000000000000000000000000000000000802008000240120900008031000000100000401000DFE2
:394020000000000000000000000020100000000000060000000000000000000000000000000000000200000000000000008001000000000000000081E746
:3940590000000000000000000000782000E0010000000200000000000000000000000000000000000002001E0402000000E001000000F08000C00100D1AA
:394092000C000000000000000000480400A001000040000000000000000000000000000000000000400000420081001200A001000000100800408220CE3E
:3940CB0004000000000000000000000400804100001008000000000000000000000000000000000020010000040A0022000040000000002000001080F5A5
:3941040000000000000000000000581000E0010080010000000000000000000000000000000000800100001EC0811800006000000000F00000C08280FCB2
:39413D000C00000000000000000060100000000000000200000000000000000000000000000000000001000000020000000000000000004000008110F700
:394176000000000000000000000020020000480000260000000000000000000000000000000000001400008004A36011000000000000000200001000B50D
:3941AF0010000000000000000000000000000000000000000000000000000000000000000000000000000000000000000000000000000000000000C0BC4B
:3941E8002000048000100002400008000120000480001000000000000000000000000000000000800010000240000800012000048000100002400080F9A1
:394221000000000000000000000000000000000000000000000000000000000000000000000000000000000000000000000000000000000000000080F9EB
:39425A002C000480001000024000080001200004800010000000000000000000000000000000008000100002400008000120000480001000024000308EDD
:394293000400000000000000000000000000000000000000000000000000000000000000000000000000000000000000000000000000000000000090ACB2
:3942CC002000048000100002400000000100000400001000000000000000000000000000000000000010000000000000010000008000000002000080EBB0
:394305000C000000000000000000400000000100000400000000000000000000000000000000000004000010000240000000012000008000000002B096EF
:39433E002000048000100002400008000120000480001000000000000000000000000000000000800010000240000800012000048000100002400080F949
:394377000000000000000000000000000000000000000000000000000000000000000000000000000000000000000000000000000000000000000080F994
:3943B0000000000000000000000000000000020000000000000000000000000000000000000000000400000000000000000000000000000000000080BF8F
:3943E9000000000000000000000000000000000000000000000000000000000000000000000000000000000000000000000000000000000000000080F922
:394422000000000000000000000000000000000000000000000000000000000000000000000000000000000000000000000000000000000000000080F9E8
:39445B000000000000000000000000000000040000000800000000000000000000000000000000000000000000000000000000000000000000000000FD1F
:394494000000000000000000000000000000000000000000000000000000000000000000000000000000000000000000000000000000000000000080F976
:3944CD0000000000000000000000000000000000000001000000000000000000000000000000000000000000040000000000000000020000000000088027
:394506001000000000000000000000000000000000000000000000000000000000000000000000000000000800800000008000100800000000000020CA62
:39453F000000000000000000000000000000000000000200000000000000000000000000000000000000000A08000200002005142501000000000A00F0D4
:39457800020000000000000000000010110000005282000000000000000000000000000000000000000000425040050094029082011C000024000050986B
:3945B1000000000000000000000000100000000000020000000000000000000000000000000000000000000000000000040200000000000000000080CD6C
:3945EA0018000000000000000000000000000000000001000000000000000000000000000000000000000000008000000000000000020000000000A0E37A
:394623000000000000000000000000000000000000010000000000000000000000000000000000000000000000000000000000000000000000000080F8E5
:39465C000000000000000000000000000000000000000000000000000000000000000000000000000000000000000000000000000000000000000080F9AC
:394695000000000000000000000000000000000000000000000000000000000000000000000000000000000400000000000000000000000000000080BDAB
:3946CE000000000000000000000000000000000000000000000000000000000000000000000000000000000000000000000000000000000000000080F93A
:394707000000000000000000000000000000000000000000000000000000000000000000000000000000000200000000000000000000000000000080DB1C
:394740000000000000000000000000000000000000000000000000000000000000000000000000000000000000022000000000000000000000000080F9A5
:394779000000000000000000000000000000000000000000000000000000000000000000000000000400000000024000000001200000000000000280A975
:3947B2000000000000000000000020000000000000020000000000000000000000000000000000000200000000010000000000000000000000000080FA2F
:3947EB0008000000000000000000000000200000800000000000000000000000000000000000008000000000400000000020000400000000000000009178
:394824000000000000000000000000000000000000000000000000000000000000000000000000000000000000000400000000000000000000000080BD1A
:39485D000400000000000000000000000000000000000000000000000000000000000000000000000000000000000000000000000000000000000080BDE1
:394896000000000000000010000000000000000000020000000000000000000000000000000000000200000804000000000000000002000000000000A81F
:3948CF00000000000000000200000000000200A08000000000000000000000000000000000000080020000021000000000002800800000005000800095EB
:39490800060000000000000000001000C00180CA0A042A0100000000000000000000000000000000042A01880200420000008102A2180040630000809829
:394941000000000000000000000000000000000008000000000000000000000000000000000000000000000800000000000000000000000000000080F1BC
:39497A000000000000000000000000000002000000020000000000000000000000000000000000000200000004002000008000000000000000000080B327
:3949B3000000000000000000000000000000000000000000000000000000000000000000000000000000000000000000000000080000400000400080F1D2
:3949EC000000000000000000000000000000400000000000000000000000000000000000000000000008000000000000000000000000000000000000B199
:394A25000000000000000000000000000000000000000000000000000000000000000000000000000000000000000000000000000000000000000080F9DF
:394A5E000000000000000000000000000000000000000000000000000000000000000000000000000000000000000000000000000000000000000080F9A6
:394A97000000000000000000000000000000000000000000000000000000000000000000000000000000000000000000000000000000000000000080F96D
:394AD0000000000000000000000000200000000000000000000000000000000000000000000000000000000000000000000000000000001000000080D825
:394B09000200000000000000000000000000000000000000000000000000000000000000000000000000000000800000000000000000000000000000D31E
:394B420000000000000000000000000000000000000000000000000000000000000000000000000000000000000000000000000000000000000000A0DBBF
:394B7B000000000000000000000000000000000000000000000000000000000000000000000000000000000000000000000000000000000000000080F988
:394BB4000800000000000000000000000000000000000000000000000000000000000000000000000000000000000000000000000000000000000088F147
:394BED000000000000000000000000000000000000000000000000000000000000000000000000000000000000000000000000000000000000000080F916
:394C26000000000000000000000000000000000000800000000000000000000000000000000000000000000000000000000000000000000000000000F1E4
:394C5F000080040014144248000048034000040C00B24016000000000000000000000000000000002040060000024011240000001834000012003800B51B
:394C98000020200084801010000040080C05E120048480100000000000000000000000000000000081805018004340080820A12004860000104242808B07
:394CD1000000000000000000000000000000000000000000000000000000000000000000000000000000000000000000000000000000000000000080F931
:394D0A000000000000000000000000000000000000000000000000000000000000000000000000000000000000000000000000000000000000000080F9F7
:394D4300003DE005FC801F70015AC00FF8013FE007FC801F00000000000000000000000000000000E8801F70017EC00FB8003FE007FC0009F0037E80EC21
:394D7C00A049902C324126C840C3221364824C900932412600000000000000000000000000000000304126C80099201364804C9009320106C8049900BD0D
:024DB500FFFFFE
:00000001FF
